:1000000018C016C215C214C213C212C211C210C245
:100010000FC275C10DC20CC20BC20AC209C208C20E
:1000200007C206C205C20060006C000432006C000A
:100030007F8011241FBECFE5D4E0DEBFCDBFE6E256
:10004000F0E040E017C0B591A5913591259105915B
:1000500007FD0CC095918591EF01F92FE82F0590D0
:100060000D92A217B307D9F7FE0104C01D92A21783
:10007000B307E1F7E233F40731F7F3D000C0F894A7
:02008000FFCFB0
:10008200CF92DF92EF92FF920F931F93CF93DF9362
:10009200CDB7DEB72C970FB6F894DEBF0FBECDBF3B
:1000A200182F362F9CE0E0E6F0E0DE011196019079
:1000B2000D929A95E1F70DEC409F212D1124269582
:1000C20026952695622F660F562F550F550F560F00
:1000D200451BE1E0F0E0EC0FFD1FE40FF11DE081B4
:1000E200A1E0B0E0AC0FBD1FA20FB11D4C9150E0DA
:1000F20060E070E0762F652F542F44276E2B309FDF
:10010200212D1124269526952695F22FFF0FEF2FEC
:10011200EE0FEE0FEF0F3E1BE1E0F0E0EC0FFD1FE4
:10012200E30FF11D30813058CB01BA01632BE1E0BE
:10013200F0E0EC0FFD1FE20FF11DC080D12CE12C8D
:10014200F12C7601DD24CC24109F212D1124322F95
:10015200369536953695E1E0F0E0EC0FFD1FE30FA2
:10016200F11D2081C22A330F232F220F220F230FCA
:10017200121BE1E0F0E0EC0FFD1FE10FF11D208109
:100182002058D22AC498FAD0C398C701B601F6D033
:100192002C960FB6F894DEBF0FBECDBFDF91CF9184
:0E01A2001F910F91FF90EF90DF90CF90089586
:1001B00080917E00823018F4C09A959802C0959A7A
:1001C000C0988091740090917500A0917600B091D4
:1001D0007700409178005091790060917A00709199
:1001E0007B00841B950BA60BB70B0A97A105B105E5
:1001F000A8F186990AC0B09B04C083E080937D007B
:1002000017C084E080937D0013C087990AC0B09B1B
:1002100004C081E080937D000BC082E080937D006C
:1002200007C010927D0080917E008F5F80937E00DA
:1002300080917E00843011F410927E0080917400D1
:1002400090917500A0917600B0917700809378002E
:1002500090937900A0937A00B0937B0080917D0009
:020260000895FF
:10026200D4D0DCD07894C12CD12C760110E0C8E136
:10027200DCE09BD0822F932FA42FB52F80937400A4
:1002820090937500A0937600B093770090DF082FCB
:100292009FD0813011F4DF5F03C0823009F4CF5F59
:1002A200033009F4CF5F8091740090917500A091A2
:1002B2007600B09177008C199D09AE09BF09883E7E
:1002C2009340A105B10568F01F5F412F6C2F8D2F60
:1002D200D7DEC0907400D0907500E0907600F09068
:1002E20077001C3311F4CF5F10E0CC3311F4DF5FE1
:0C02F200C0E0D83109F0BDCFD0E0BBCF98
:1002FE001F920F920FB60F9211242F933F934F938D
:10030E005F936F937F938F939F93AF938DE782BF8E
:10031E0020916C0030916D0040916E0050916F00F5
:10032E0060917000709171008091720090917300D5
:10033E00A1E059D020936C0030936D0040936E0075
:10034E0050936F00609370007093710080937200F1
:10035E0090937300AF919F918F917F916F915F9169
:10036E004F913F912F910F900FBE0F901F901895A8
:10037E00AB01BC01C29AC19AC19884E290E040FDE3
:10038E0002C0C29801C0C29A769567955795479557
:0E039E00C19AC198019799F7C39AC49A08951D
:1003AC00F89420916C0030916D0040916E0050914A
:1003BC006F0060917000709171008091720090914B
:0603CC007300789408950F
:1003D200EEDE882339F090917C00911108C0809361
:1003E2007C0002C010927C0080917C00089580E025
:0203F20008956C
:1003F4000024A7FD00942A0F301D401D501D601DD0
:08040400701D801D901D08957C
:10040C00B89A8D9A87B38E6187BB88B3886188BB95
:02041C00089541
:10041E008DE782BF89B7816089BF83B7826083BF52
:02042E0008952F
:02043000E7CD16
:0C0432003F065B4F666D7D077F6F00404A
:00000001FF
