:1000000018C018C417C416C415C414C413C412C429
:1000100011C410C40FC40EC40DC40CC40BC40AC454
:1000200009C408C407C40060006C000836006C00F6
:10003000738011241FBECFE5D4E0DEBFCDBFE6E262
:10004000F0E040E017C0B591A5913591259105915B
:1000500007FD0CC095918591EF01F92FE82F0590D0
:100060000D92A217B307D9F7FE0104C01D92A21783
:10007000B307E1F7E233F40731F7C5D300C0F894D2
:02008000FFCFB0
:100082004F925F926F927F928F929F92AF92BF92A6
:10009200CF92DF92EF92FF920F93CF93DF93CDB780
:1000A200DEB7A0970FB6F894DEBF0FBECDBF1982A0
:1000B2001A821B821C821D821E821F82188619864A
:1000C2001A861B861C861D861E861F86188A2CE0B1
:1000D200E0E6F0E0DE01519601900D922A95E1F7FB
:1000E2006B017C0199233CF4CC24DD247601C61AF1
:1000F200D70AE80AF90A21EAC21626E8D20621E05E
:10010200E206F1044CF0C701B6012AE030E040E01B
:1001120050E058D369017A018B8D809372004601B9
:100122005701D701C601805A9648A140B109803AC9
:100132009B4BAD40B10508F079C0C701B60120EA7A
:1001420036E841E050E03ED3E1E1F0E0EC0FFD1F84
:10015200E20FF31F808180937100C701B60120E195
:1001620037E240E050E02ED30F2EFAE04F2E512C12
:10017200612C712CF02DCA01B901A301920122D385
:10018200E1E1F0E0EC0FFD1FE60FF71F80818093A5
:100192007000C701B60128EE33E040E050E012D310
:1001A200CA01B901A30192010DD3E1E1F0E0EC0F24
:1001B200FD1FE60FF71F808180936F00C701B60114
:1001C20024E630E040E050E0FDD2CA01B901A301CB
:1001D2009201F8D2E1E1F0E0EC0FFD1FE60FF71F0C
:1001E200808180936E00C701B601A3019201EAD219
:1001F2006D8F7E8F8F8F98A3CA01B901A3019201DF
:10020200E1D2E1E1F0E0EC0FFD1FE60FF71F808184
:10021200805880936D00E1E1F0E0EC0FFD1F8D8DC1
:100222009E8DE80FF91F808180936C00D501C40177
:1002320080519742A109B10980399F45A140B1057A
:1002420008F06DC08091720080937100C701B60101
:1002520020E137E240E050E0B5D20F2EFAE04F2E17
:10026200512C612C712CF02DCA01B901A30192010C
:10027200A9D2E1E1F0E0EC0FFD1FE60FF71F80814C
:1002820080937000C701B60128EE33E040E050E0F1
:1002920099D2CA01B901A301920194D2E1E1F0E03D
:1002A200EC0FFD1FE60FF71F808180936F00C701DF
:1002B200B60124E630E040E050E084D2CA01B90140
:1002C200A30192017FD2E1E1F0E0EC0FFD1FE60F06
:1002D200F71F808180936E00C701B601A3019201CE
:1002E20071D26D8F7E8F8F8F98A3CA01B901A3013E
:1002F200920168D2E1E1F0E0EC0FFD1FE60FF71F7B
:100302008081805880936D00E1E1F0E0EC0FFD1FE9
:100312008D8D9E8DE80FF91F808180936C00D50131
:10032200C401885E9340A109B10988329342A105B4
:10033200B10508F05AC0109271008091720080934A
:100342007000C701B60128EE33E040E050E03AD237
:100352000F2EFAE04F2E512C612C712CF02DCA0178
:10036200B901A30192012ED2E1E1F0E0EC0FFD1FF1
:10037200E60FF71F808180936F00C701B60124E664
:1003820030E040E050E01ED2CA01B901A30192015F
:1003920019D2E1E1F0E0EC0FFD1FE60FF71F8081BB
:1003A20080936E00C701B601A30192010BD26D8F3B
:1003B2007E8F8F8F98A3CA01B901A301920102D245
:1003C200E1E1F0E0EC0FFD1FE60FF71F808180589E
:1003D20080936D00E1E1F0E0EC0FFD1F8D8D9E8DAD
:1003E200E80FF91F808180936C00D501C401845607
:1003F2009109A109B10984389340A105B10508F01A
:1004020047C0109271001092700080917200809328
:100412006F00C701B60124E630E040E050E0D2D1DF
:100422000F2EFAE04F2E512C612C712CF02DCA01A7
:10043200B901A3019201C6D1E1E1F0E0EC0FFD1F89
:10044200E60FF71F808180936E00C701B601A301FA
:100452009201B8D16D8F7E8F8F8F98A3CA01B90197
:10046200A3019201AFD1E1E1F0E0EC0FFD1FE60F35
:10047200F71F8081805880936D00E1E1F0E0EC0F7E
:10048200FD1F8D8D9E8DE80FF91F808180936C007A
:10049200D501C4010A97A109B1098A359105A105BF
:1004A200B105A0F5109271001092700010926F00C9
:1004B2008091720080936E000F2EFAE04F2E512C25
:1004C200612C712CF02DC701B601A30192017AD1E2
:1004D2006D8F7E8F8F8F98A3CA01B901A3019201FC
:1004E20071D1E1E1F0E0EC0FFD1FE60FF71F808113
:1004F200805880936D00E1E1F0E0EC0FFD1F8D8DDF
:100502009E8DE80FF91F808180936C009AE0891616
:100512009104A104B104E8F48AE08093710080930D
:10052200700080936F0080936E00809172008093C0
:100532006D00C701B6012AE030E040E050E042D150
:10054200E1E1F0E0EC0FFD1FE60FF71F80818093E1
:100552006C00A0916C0029813A814B815C816D8194
:100562007E818F81988580906D00F9819A80AB8021
:10057200BC80CD80DE80EF80F884B0916E00E9818E
:100582007A807B807C807D807E807F8078842A2B2D
:1005920000E1FFD0A42F282D2F2B392D4A2D5B2DC2
:1005A2006C2D7D2D8E2D9F2D08E0F3D0EB2B2E2B65
:1005B20029833A83AB831C821D821E821F82188686
:1005C200A0916F0029853A854B855C856D857E8576
:1005D2008F85988980907000F9859A84AB84BC8459
:1005E200CD84DE84EF84F888B0917100E9857A8445
:1005F2007B847C847D847E847F8478882A2B00E1BE
:10060200C8D0A42F282D2F2B392D4A2D5B2D6C2DD0
:100612007D2D8E2D9F2D08E0BCD0EB2B2E2B298714
:100622003A87AB871C861D861E861F86188AC49849
:1006320029813A814B815C816D817E818F81988590
:1006420020D0C39829853A854B855C856D857E854A
:100652008F85988916D0A0960FB6F894DEBF0FBE8C
:10066200CDBFDF91CF910F91FF90EF90DF90CF90B0
:10067200BF90AF909F908F907F906F905F904F90C0
:020682000895D9
:10068400DF92EF92FF920F931F93CF93DF93E22FAA
:10069400132FD42FC52FB62FF72FD82E092FC29A78
:1006A400C19AC1980F2EF4E2EF2EF12CF02D2E2FCB
:1006B400217030E040E050E060E070E080E090E0E5
:1006C400A0E093D011F4C29801C0C29A2E2F312F0A
:1006D4004D2F5C2F6B2F7F2F8D2D902F01E03CD061
:1006E400E22F132FD42FC52FB62FF72FD82E092F73
:1006F400C19AC19881E0E81AF108C9F6C39AC49A6C
:10070400DF91CF911F910F91FF90EF90DF900895AB
:10071400A1E21A2EAA1BBB1BFD010DC0AA1FBB1F01
:10072400EE1FFF1FA217B307E407F50720F0A21B73
:10073400B30BE40BF50B661F771F881F991F1A94E0
:1007440069F760957095809590959B01AC01BD010A
:04075400CF01089534
:1007580097FB10F8169400080F93083098F008508B
:10076800232F342F452F562F672F782F892F902D21
:10077800F4CF0594979587957795679557954795FD
:0C078800379527950A95AAF70F91089560
:100794000F93083090F0982F872F762F652F542FC2
:1007A400432F322F22270850F4CF220F331F441F28
:1007B400551F661F771F881F991F0A95B2F70F915F
:0207C400089596
:1007C600052E97FB16F4009423D057FD05D09FDF26
:1007D60007FC02D046F41CC05095409530952195F3
:0807E6003F4F4F4F5F4F089594
:1007EE000024A7FD00942A1730054005500560052A
:0807FE007005800590050895C7
:100806000FD041E062ED74E080E090E037DCF9CF94
:1008160090958095709561957F4F8F4F9F4F089566
:0E08260087B38E6187BB88B3886188BB089555
:02083400E5CB12
:0C0836003F065B4F666D7D077F6F004042
:00000001FF
